{
  "_format": "hh-sol-artifact-1",
  "contractName": "RootSeal",
  "sourceName": "contracts/rootseal.sol",
  "abi": [
    {
      "inputs": [
        {
          "internalType": "bytes32",
          "name": "_root",
          "type": "bytes32"
        },
        {
          "internalType": "string",
          "name": "_description",
          "type": "string"
        }
      ],
      "stateMutability": "nonpayable",
      "type": "constructor"
    },
    {
      "anonymous": false,
      "inputs": [],
      "name": "ContractLocked",
      "type": "event"
    },
    {
      "anonymous": false,
      "inputs": [
        {
          "indexed": false,
          "internalType": "bytes32",
          "name": "newRoot",
          "type": "bytes32"
        },
        {
          "indexed": false,
          "internalType": "string",
          "name": "description",
          "type": "string"
        }
      ],
      "name": "MerkleRootUpdated",
      "type": "event"
    },
    {
      "inputs": [],
      "name": "description",
      "outputs": [
        {
          "internalType": "string",
          "name": "",
          "type": "string"
        }
      ],
      "stateMutability": "view",
      "type": "function"
    },
    {
      "inputs": [],
      "name": "isLocked",
      "outputs": [
        {
          "internalType": "bool",
          "name": "",
          "type": "bool"
        }
      ],
      "stateMutability": "view",
      "type": "function"
    },
    {
      "inputs": [],
      "name": "lock",
      "outputs": [],
      "stateMutability": "nonpayable",
      "type": "function"
    },
    {
      "inputs": [],
      "name": "merkleRoot",
      "outputs": [
        {
          "internalType": "bytes32",
          "name": "",
          "type": "bytes32"
        }
      ],
      "stateMutability": "view",
      "type": "function"
    },
    {
      "inputs": [],
      "name": "owner",
      "outputs": [
        {
          "internalType": "address",
          "name": "",
          "type": "address"
        }
      ],
      "stateMutability": "view",
      "type": "function"
    },
    {
      "inputs": [
        {
          "internalType": "bytes32",
          "name": "_root",
          "type": "bytes32"
        },
        {
          "internalType": "string",
          "name": "_description",
          "type": "string"
        }
      ],
      "name": "setMerkleRoot",
      "outputs": [],
      "stateMutability": "nonpayable",
      "type": "function"
    }
  ],
  "bytecode": "0x608060405234801561001057600080fd5b5060405161125f38038061125f83398181016040528101906100329190610274565b336000806101000a81548173ffffffffffffffffffffffffffffffffffffffff021916908373ffffffffffffffffffffffffffffffffffffffff16021790555081600181905550806002908161008891906104f1565b507fdc6ef77e1e729c09277287d1224cc0b4fd2053bbcca61a8febb80e461803247882826040516100ba92919061061c565b60405180910390a1505061064c565b6000604051905090565b600080fd5b600080fd5b6000819050919050565b6100f0816100dd565b81146100fb57600080fd5b50565b60008151905061010d816100e7565b92915050565b600080fd5b600080fd5b6000601f19601f8301169050919050565b7f4e487b7100000000000000000000000000000000000000000000000000000000600052604160045260246000fd5b6101668261011d565b810181811067ffffffffffffffff821117156101855761018461012e565b5b80604052505050565b60006101986100c9565b90506101a4828261015d565b919050565b600067ffffffffffffffff8211156101c4576101c361012e565b5b6101cd8261011d565b9050602081019050919050565b60005b838110156101f85780820151818401526020810190506101dd565b60008484015250505050565b6000610217610212846101a9565b61018e565b90508281526020810184848401111561023357610232610118565b5b61023e8482856101da565b509392505050565b600082601f83011261025b5761025a610113565b5b815161026b848260208601610204565b91505092915050565b6000806040838503121561028b5761028a6100d3565b5b6000610299858286016100fe565b925050602083015167ffffffffffffffff8111156102ba576102b96100d8565b5b6102c685828601610246565b9150509250929050565b600081519050919050565b7f4e487b7100000000000000000000000000000000000000000000000000000000600052602260045260246000fd5b6000600282049050600182168061032257607f821691505b602082108103610335576103346102db565b5b50919050565b60008190508160005260206000209050919050565b60006020601f8301049050919050565b600082821b905092915050565b60006008830261039d7fffffffffffffffffffffffffffffffffffffffffffffffffffffffffffffffff82610360565b6103a78683610360565b95508019841693508086168417925050509392505050565b6000819050919050565b6000819050919050565b60006103ee6103e96103e4846103bf565b6103c9565b6103bf565b9050919050565b6000819050919050565b610408836103d3565b61041c610414826103f5565b84845461036d565b825550505050565b600090565b610431610424565b61043c8184846103ff565b505050565b5b8181101561046057610455600082610429565b600181019050610442565b5050565b601f8211156104a5576104768161033b565b61047f84610350565b8101602085101561048e578190505b6104a261049a85610350565b830182610441565b50505b505050565b600082821c905092915050565b60006104c8600019846008026104aa565b1980831691505092915050565b60006104e183836104b7565b9150826002028217905092915050565b6104fa826102d0565b67ffffffffffffffff8111156105135761051261012e565b5b61051d825461030a565b610528828285610464565b600060209050601f83116001811461055b5760008415610549578287015190505b61055385826104d5565b8655506105bb565b601f1984166105698661033b565b60005b828110156105915784890151825560018201915060208501945060208101905061056c565b868310156105ae57848901516105aa601f8916826104b7565b8355505b6001600288020188555050505b505050505050565b6105cc816100dd565b82525050565b600082825260208201905092915050565b60006105ee826102d0565b6105f881856105d2565b93506106088185602086016101da565b6106118161011d565b840191505092915050565b600060408201905061063160008301856105c3565b818103602083015261064381846105e3565b90509392505050565b610c048061065b6000396000f3fe608060405234801561001057600080fd5b50600436106100625760003560e01c80632eb4a7ab146100675780637284e4161461008557806380b383ca146100a35780638da5cb5b146100bf578063a4e2d634146100dd578063f83d08ba146100fb575b600080fd5b61006f610105565b60405161007c9190610442565b60405180910390f35b61008d61010b565b60405161009a91906104ed565b60405180910390f35b6100bd60048036038101906100b89190610684565b610199565b005b6100c76102cb565b6040516100d49190610721565b60405180910390f35b6100e56102ef565b6040516100f29190610757565b60405180910390f35b610103610302565b005b60015481565b60028054610118906107a1565b80601f0160208091040260200160405190810160405280929190818152602001828054610144906107a1565b80156101915780601f1061016657610100808354040283529160200191610191565b820191906000526020600020905b81548152906001019060200180831161017457829003601f168201915b505050505081565b60008054906101000a900473ffffffffffffffffffffffffffffffffffffffff1673ffffffffffffffffffffffffffffffffffffffff163373ffffffffffffffffffffffffffffffffffffffff1614610227576040517f08c379a000000000000000000000000000000000000000000000000000000000815260040161021e9061081e565b60405180910390fd5b600360009054906101000a900460ff1615610277576040517f08c379a000000000000000000000000000000000000000000000000000000000815260040161026e9061088a565b60405180910390fd5b81600181905550806002908161028d9190610a60565b507fdc6ef77e1e729c09277287d1224cc0b4fd2053bbcca61a8febb80e461803247882826040516102bf929190610b32565b60405180910390a15050565b60008054906101000a900473ffffffffffffffffffffffffffffffffffffffff1681565b600360009054906101000a900460ff1681565b60008054906101000a900473ffffffffffffffffffffffffffffffffffffffff1673ffffffffffffffffffffffffffffffffffffffff163373ffffffffffffffffffffffffffffffffffffffff1614610390576040517f08c379a00000000000000000000000000000000000000000000000000000000081526004016103879061081e565b60405180910390fd5b600360009054906101000a900460ff16156103e0576040517f08c379a00000000000000000000000000000000000000000000000000000000081526004016103d790610bae565b60405180910390fd5b6001600360006101000a81548160ff0219169083151502179055507f6f5ffb7e2a6656882126927a79e460ca27ab657927d593522b90dc28229f7dbc60405160405180910390a1565b6000819050919050565b61043c81610429565b82525050565b60006020820190506104576000830184610433565b92915050565b600081519050919050565b600082825260208201905092915050565b60005b8381101561049757808201518184015260208101905061047c565b60008484015250505050565b6000601f19601f8301169050919050565b60006104bf8261045d565b6104c98185610468565b93506104d9818560208601610479565b6104e2816104a3565b840191505092915050565b6000602082019050818103600083015261050781846104b4565b905092915050565b6000604051905090565b600080fd5b600080fd5b61052c81610429565b811461053757600080fd5b50565b60008135905061054981610523565b92915050565b600080fd5b600080fd5b7f4e487b7100000000000000000000000000000000000000000000000000000000600052604160045260246000fd5b610591826104a3565b810181811067ffffffffffffffff821117156105b0576105af610559565b5b80604052505050565b60006105c361050f565b90506105cf8282610588565b919050565b600067ffffffffffffffff8211156105ef576105ee610559565b5b6105f8826104a3565b9050602081019050919050565b82818337600083830152505050565b6000610627610622846105d4565b6105b9565b90508281526020810184848401111561064357610642610554565b5b61064e848285610605565b509392505050565b600082601f83011261066b5761066a61054f565b5b813561067b848260208601610614565b91505092915050565b6000806040838503121561069b5761069a610519565b5b60006106a98582860161053a565b925050602083013567ffffffffffffffff8111156106ca576106c961051e565b5b6106d685828601610656565b9150509250929050565b600073ffffffffffffffffffffffffffffffffffffffff82169050919050565b600061070b826106e0565b9050919050565b61071b81610700565b82525050565b60006020820190506107366000830184610712565b92915050565b60008115159050919050565b6107518161073c565b82525050565b600060208201905061076c6000830184610748565b92915050565b7f4e487b7100000000000000000000000000000000000000000000000000000000600052602260045260246000fd5b600060028204905060018216806107b957607f821691505b6020821081036107cc576107cb610772565b5b50919050565b7f4e6f74206f776e65720000000000000000000000000000000000000000000000600082015250565b6000610808600983610468565b9150610813826107d2565b602082019050919050565b60006020820190508181036000830152610837816107fb565b9050919050565b7f436f6e7472616374206973206c6f636b65640000000000000000000000000000600082015250565b6000610874601283610468565b915061087f8261083e565b602082019050919050565b600060208201905081810360008301526108a381610867565b9050919050565b60008190508160005260206000209050919050565b60006020601f8301049050919050565b600082821b905092915050565b60006008830261090c7fffffffffffffffffffffffffffffffffffffffffffffffffffffffffffffffff826108cf565b61091686836108cf565b95508019841693508086168417925050509392505050565b6000819050919050565b6000819050919050565b600061095d6109586109538461092e565b610938565b61092e565b9050919050565b6000819050919050565b61097783610942565b61098b61098382610964565b8484546108dc565b825550505050565b600090565b6109a0610993565b6109ab81848461096e565b505050565b5b818110156109cf576109c4600082610998565b6001810190506109b1565b5050565b601f821115610a14576109e5816108aa565b6109ee846108bf565b810160208510156109fd578190505b610a11610a09856108bf565b8301826109b0565b50505b505050565b600082821c905092915050565b6000610a3760001984600802610a19565b1980831691505092915050565b6000610a508383610a26565b9150826002028217905092915050565b610a698261045d565b67ffffffffffffffff811115610a8257610a81610559565b5b610a8c82546107a1565b610a978282856109d3565b600060209050601f831160018114610aca5760008415610ab8578287015190505b610ac28582610a44565b865550610b2a565b601f198416610ad8866108aa565b60005b82811015610b0057848901518255600182019150602085019450602081019050610adb565b86831015610b1d5784890151610b19601f891682610a26565b8355505b6001600288020188555050505b505050505050565b6000604082019050610b476000830185610433565b8181036020830152610b5981846104b4565b90509392505050565b7f416c7265616479206c6f636b6564000000000000000000000000000000000000600082015250565b6000610b98600e83610468565b9150610ba382610b62565b602082019050919050565b60006020820190508181036000830152610bc781610b8b565b905091905056fea2646970667358221220024c0ac758f3f2513a0f6c85eb10207c9389f506ae6b2f87bdaa7d0f7c62b34c64736f6c634300081c0033",
  "linkReferences": {},
  "deployedLinkReferences": {}
}